{
  "contractName": "Distribut",
  "abi": [
    {
      "inputs": [],
      "stateMutability": "nonpayable",
      "type": "constructor"
    },
    {
      "inputs": [],
      "name": "tokenFoundersPercentage",
      "outputs": [
        {
          "internalType": "uint256",
          "name": "",
          "type": "uint256"
        }
      ],
      "stateMutability": "view",
      "type": "function"
    },
    {
      "inputs": [],
      "name": "tokenSalePercentage",
      "outputs": [
        {
          "internalType": "uint256",
          "name": "",
          "type": "uint256"
        }
      ],
      "stateMutability": "view",
      "type": "function"
    },
    {
      "inputs": [],
      "name": "tokenTeammemberPercentage",
      "outputs": [
        {
          "internalType": "uint256",
          "name": "",
          "type": "uint256"
        }
      ],
      "stateMutability": "view",
      "type": "function"
    },
    {
      "inputs": [],
      "name": "total",
      "outputs": [
        {
          "internalType": "uint256",
          "name": "",
          "type": "uint256"
        }
      ],
      "stateMutability": "view",
      "type": "function"
    },
    {
      "inputs": [],
      "name": "getFoundersTotalSupply",
      "outputs": [
        {
          "internalType": "uint256",
          "name": "",
          "type": "uint256"
        }
      ],
      "stateMutability": "view",
      "type": "function"
    },
    {
      "inputs": [
        {
          "internalType": "address",
          "name": "token",
          "type": "address"
        },
        {
          "internalType": "uint256",
          "name": "tokenId",
          "type": "uint256"
        },
        {
          "internalType": "uint256",
          "name": "price",
          "type": "uint256"
        }
      ],
      "name": "addSeller",
      "outputs": [],
      "stateMutability": "nonpayable",
      "type": "function"
    },
    {
      "inputs": [
        {
          "internalType": "address",
          "name": "founder",
          "type": "address"
        },
        {
          "internalType": "address",
          "name": "token",
          "type": "address"
        },
        {
          "internalType": "uint256",
          "name": "tokenId",
          "type": "uint256"
        },
        {
          "internalType": "uint256",
          "name": "price",
          "type": "uint256"
        }
      ],
      "name": "addFounder",
      "outputs": [],
      "stateMutability": "nonpayable",
      "type": "function"
    },
    {
      "inputs": [
        {
          "internalType": "address",
          "name": "teamlead",
          "type": "address"
        },
        {
          "internalType": "address",
          "name": "token",
          "type": "address"
        },
        {
          "internalType": "uint256",
          "name": "tokenId",
          "type": "uint256"
        },
        {
          "internalType": "uint256",
          "name": "price",
          "type": "uint256"
        }
      ],
      "name": "addTeamlead",
      "outputs": [],
      "stateMutability": "nonpayable",
      "type": "function"
    },
    {
      "inputs": [
        {
          "internalType": "uint256",
          "name": "sellerId",
          "type": "uint256"
        }
      ],
      "name": "buyToken",
      "outputs": [],
      "stateMutability": "payable",
      "type": "function"
    },
    {
      "inputs": [
        {
          "internalType": "uint256",
          "name": "founderId",
          "type": "uint256"
        }
      ],
      "name": "buyTokenFounder",
      "outputs": [],
      "stateMutability": "payable",
      "type": "function"
    }
  ],
  "bytecode": "0x60806040526000600755600060085560006009553480156200002057600080fd5b506040516200002f906200012d565b604051809103906000f0801580156200004c573d6000803e3d6000fd5b5073ffffffffffffffffffffffffffffffffffffffff1663bcaede486040518163ffffffff167c01000000000000000000000000000000000000000000000000000000000281526004016020604051808303816000875af1158015620000b6573d6000803e3d6000fd5b505050506040513d601f19601f82011682018060405250810190620000dc91906200017b565b6000819055506002600054620000f39190620001dc565b60018190555060056000546200010a9190620001dc565b6002819055506004600054620001219190620001dc565b60038190555062000214565b611c0780620014c583390190565b600080fd5b6000819050919050565b620001558162000140565b81146200016157600080fd5b50565b60008151905062000175816200014a565b92915050565b6000602082840312156200019457620001936200013b565b5b6000620001a48482850162000164565b91505092915050565b7f4e487b7100000000000000000000000000000000000000000000000000000000600052601260045260246000fd5b6000620001e98262000140565b9150620001f68362000140565b925082620002095762000208620001ad565b5b828204905092915050565b6112a180620002246000396000f3fe6080604052600436106100ae576000357c0100000000000000000000000000000000000000000000000000000000900480634a3ebf44116100765780634a3ebf441461017957806355f23099146101a2578063918cf6ed146101cb578063a156ce2d146101f6578063df1baa1c14610221576100ae565b80630c1350d9146100b357806320aca3c2146100de5780632d296bf1146101075780632ddbd13a1461012357806346daa2421461014e575b600080fd5b3480156100bf57600080fd5b506100c861023d565b6040516100d59190610cd2565b60405180910390f35b3480156100ea57600080fd5b5061010560048036038101906101009190610d7c565b610243565b005b610121600480360381019061011c9190610dcf565b61036b565b005b34801561012f57600080fd5b50610138610672565b6040516101459190610cd2565b60405180910390f35b34801561015a57600080fd5b50610163610678565b6040516101709190610cd2565b60405180910390f35b34801561018557600080fd5b506101a0600480360381019061019b9190610dfc565b61067e565b005b3480156101ae57600080fd5b506101c960048036038101906101c49190610dfc565b61080f565b005b3480156101d757600080fd5b506101e06109a0565b6040516101ed9190610cd2565b60405180910390f35b34801561020257600080fd5b5061020b6109a6565b6040516102189190610cd2565b60405180910390f35b61023b60048036038101906102369190610dcf565b6109b0565b005b60035481565b600060405180608001604052803373ffffffffffffffffffffffffffffffffffffffff1681526020018573ffffffffffffffffffffffffffffffffffffffff1681526020018481526020018381525090506007600081546102a390610e92565b919050819055508060046000600754815260200190815260200160002060008201518160000160006101000a81548173ffffffffffffffffffffffffffffffffffffffff021916908373ffffffffffffffffffffffffffffffffffffffff16021790555060208201518160010160006101000a81548173ffffffffffffffffffffffffffffffffffffffff021916908373ffffffffffffffffffffffffffffffffffffffff160217905550604082015181600201556060820151816003015590505050505050565b60006004600083815260200190815260200160002090508060000160009054906101000a900473ffffffffffffffffffffffffffffffffffffffff1673ffffffffffffffffffffffffffffffffffffffff163373ffffffffffffffffffffffffffffffffffffffff1603610414576040517f08c379a000000000000000000000000000000000000000000000000000000000815260040161040b90610f37565b60405180910390fd5b806003015434101561045b576040517f08c379a000000000000000000000000000000000000000000000000000000000815260040161045290610fa3565b60405180910390fd5b6001548160020154106104a3576040517f08c379a000000000000000000000000000000000000000000000000000000000815260040161049a9061100f565b60405180910390fd5b8060010160009054906101000a900473ffffffffffffffffffffffffffffffffffffffff1673ffffffffffffffffffffffffffffffffffffffff166323b872dd8260000160009054906101000a900473ffffffffffffffffffffffffffffffffffffffff163384600201546040518463ffffffff167c01000000000000000000000000000000000000000000000000000000000281526004016105489392919061103e565b6020604051808303816000875af1158015610567573d6000803e3d6000fd5b505050506040513d601f19601f8201168201806040525081019061058b91906110ad565b508060000160009054906101000a900473ffffffffffffffffffffffffffffffffffffffff1673ffffffffffffffffffffffffffffffffffffffff166108fc82600301549081150290604051600060405180830381858888f193505050501580156105fa573d6000803e3d6000fd5b503373ffffffffffffffffffffffffffffffffffffffff166108fc82600301543461062591906110da565b9081150290604051600060405180830381858888f19350505050158015610650573d6000803e3d6000fd5b5080600201546001600082825461066791906110da565b925050819055505050565b60005481565b60015481565b60006040518060c001604052806000600281111561069f5761069e61110e565b5b81526020018673ffffffffffffffffffffffffffffffffffffffff1681526020018573ffffffffffffffffffffffffffffffffffffffff16815260200184815260200183815260200163018b8200426106f8919061113d565b815250905060086000815461070c90610e92565b919050819055508060056000600854815260200190815260200160002060008201518160000160006101000a81548160ff021916908360028111156107545761075361110e565b5b021790555060208201518160000160016101000a81548173ffffffffffffffffffffffffffffffffffffffff021916908373ffffffffffffffffffffffffffffffffffffffff16021790555060408201518160010160006101000a81548173ffffffffffffffffffffffffffffffffffffffff021916908373ffffffffffffffffffffffffffffffffffffffff160217905550606082015181600201556080820151816003015560a082015181600401559050505050505050565b60006040518060c00160405280600060028111156108305761082f61110e565b5b81526020018673ffffffffffffffffffffffffffffffffffffffff1681526020018573ffffffffffffffffffffffffffffffffffffffff168152602001848152602001838152602001630107ac0042610889919061113d565b815250905060096000815461089d90610e92565b919050819055508060066000600954815260200190815260200160002060008201518160000160006101000a81548160ff021916908360028111156108e5576108e461110e565b5b021790555060208201518160000160016101000a81548173ffffffffffffffffffffffffffffffffffffffff021916908373ffffffffffffffffffffffffffffffffffffffff16021790555060408201518160010160006101000a81548173ffffffffffffffffffffffffffffffffffffffff021916908373ffffffffffffffffffffffffffffffffffffffff160217905550606082015181600201556080820151816003015560a082015181600401559050505050505050565b60025481565b6000600254905090565b60006005600083815260200190815260200160002090506002805411610a0b576040517f08c379a0000000000000000000000000000000000000000000000000000000008152600401610a02906111df565b60405180910390fd5b60028160000160006101000a81548160ff02191690836002811115610a3357610a3261110e565b5b02179055508060000160019054906101000a900473ffffffffffffffffffffffffffffffffffffffff1673ffffffffffffffffffffffffffffffffffffffff163373ffffffffffffffffffffffffffffffffffffffff1603610aca576040517f08c379a0000000000000000000000000000000000000000000000000000000008152600401610ac190610f37565b60405180910390fd5b8060030154341015610b11576040517f08c379a0000000000000000000000000000000000000000000000000000000008152600401610b0890610fa3565b60405180910390fd5b60c8428260040154610b2391906110da565b1015610b64576040517f08c379a0000000000000000000000000000000000000000000000000000000008152600401610b5b9061124b565b60405180910390fd5b8060010160009054906101000a900473ffffffffffffffffffffffffffffffffffffffff1673ffffffffffffffffffffffffffffffffffffffff166323b872dd303384600201546040518463ffffffff167c0100000000000000000000000000000000000000000000000000000000028152600401610be59392919061103e565b6020604051808303816000875af1158015610c04573d6000803e3d6000fd5b505050506040513d601f19601f82011682018060405250810190610c2891906110ad565b508060000160019054906101000a900473ffffffffffffffffffffffffffffffffffffffff1673ffffffffffffffffffffffffffffffffffffffff166108fc82600301549081150290604051600060405180830381858888f19350505050158015610c97573d6000803e3d6000fd5b50806002015460026000828254610cae91906110da565b925050819055505050565b6000819050919050565b610ccc81610cb9565b82525050565b6000602082019050610ce76000830184610cc3565b92915050565b600080fd5b600073ffffffffffffffffffffffffffffffffffffffff82169050919050565b6000610d1d82610cf2565b9050919050565b610d2d81610d12565b8114610d3857600080fd5b50565b600081359050610d4a81610d24565b92915050565b610d5981610cb9565b8114610d6457600080fd5b50565b600081359050610d7681610d50565b92915050565b600080600060608486031215610d9557610d94610ced565b5b6000610da386828701610d3b565b9350506020610db486828701610d67565b9250506040610dc586828701610d67565b9150509250925092565b600060208284031215610de557610de4610ced565b5b6000610df384828501610d67565b91505092915050565b60008060008060808587031215610e1657610e15610ced565b5b6000610e2487828801610d3b565b9450506020610e3587828801610d3b565b9350506040610e4687828801610d67565b9250506060610e5787828801610d67565b91505092959194509250565b7f4e487b7100000000000000000000000000000000000000000000000000000000600052601160045260246000fd5b6000610e9d82610cb9565b91507fffffffffffffffffffffffffffffffffffffffffffffffffffffffffffffffff8203610ecf57610ece610e63565b5b600182019050919050565b600082825260208201905092915050565b7f42757965722063616e206e6f7420626520612073656c6c657200000000000000600082015250565b6000610f21601983610eda565b9150610f2c82610eeb565b602082019050919050565b60006020820190508181036000830152610f5081610f14565b9050919050565b7f496e73756666696369656e742042616c616e6365000000000000000000000000600082015250565b6000610f8d601483610eda565b9150610f9882610f57565b602082019050919050565b60006020820190508181036000830152610fbc81610f80565b9050919050565b7f5468657265206973206e6f20746f6b656e730000000000000000000000000000600082015250565b6000610ff9601283610eda565b915061100482610fc3565b602082019050919050565b6000602082019050818103600083015261102881610fec565b9050919050565b61103881610d12565b82525050565b6000606082019050611053600083018661102f565b611060602083018561102f565b61106d6040830184610cc3565b949350505050565b60008115159050919050565b61108a81611075565b811461109557600080fd5b50565b6000815190506110a781611081565b92915050565b6000602082840312156110c3576110c2610ced565b5b60006110d184828501611098565b91505092915050565b60006110e582610cb9565b91506110f083610cb9565b92508282101561110357611102610e63565b5b828203905092915050565b7f4e487b7100000000000000000000000000000000000000000000000000000000600052602160045260246000fd5b600061114882610cb9565b915061115383610cb9565b9250827fffffffffffffffffffffffffffffffffffffffffffffffffffffffffffffffff0382111561118857611187610e63565b5b828201905092915050565b7f666f756e646572202063616e742073616c65206c61737420746f6b656e000000600082015250565b60006111c9601d83610eda565b91506111d482611193565b602082019050919050565b600060208201905081810360008301526111f8816111bc565b9050919050565b7f666f756e6465722063616e60742073616c6520746f6b656e7320000000000000600082015250565b6000611235601a83610eda565b9150611240826111ff565b602082019050919050565b6000602082019050818103600083015261126481611228565b905091905056fea26469706673582212202f3461849364f98d7b08f8cc97aaa03519109109f4dafdde7ea1d2df363a6bb664736f6c634300080e0033608060405260646006553480156200001657600080fd5b506040518060400160405280600581526020017f70656761730000000000000000000000000000000000000000000000000000008152506040518060400160405280600581526020017f504547415300000000000000000000000000000000000000000000000000000081525081600390805190602001906200009b929190620001bd565b508060049080519060200190620000b4929190620001bd565b505050620000e9620000d4620000ef640100000000026401000000009004565b620000f7640100000000026401000000009004565b620002d1565b600033905090565b6000600560009054906101000a900473ffffffffffffffffffffffffffffffffffffffff16905081600560006101000a81548173ffffffffffffffffffffffffffffffffffffffff021916908373ffffffffffffffffffffffffffffffffffffffff1602179055508173ffffffffffffffffffffffffffffffffffffffff168173ffffffffffffffffffffffffffffffffffffffff167f8be0079c531659141344cd1fd0a4f28419497f9722a3daafe3b4186f6b6457e060405160405180910390a35050565b828054620001cb906200029c565b90600052602060002090601f016020900481019282620001ef57600085556200023b565b82601f106200020a57805160ff19168380011785556200023b565b828001600101855582156200023b579182015b828111156200023a5782518255916020019190600101906200021d565b5b5090506200024a91906200024e565b5090565b5b80821115620002695760008160009055506001016200024f565b5090565b7f4e487b7100000000000000000000000000000000000000000000000000000000600052602260045260246000fd5b60006002820490506001821680620002b557607f821691505b602082108103620002cb57620002ca6200026d565b5b50919050565b61192680620002e16000396000f3fe608060405234801561001057600080fd5b5060043610610112576000357c010000000000000000000000000000000000000000000000000000000090048063715018a6116100b4578063a9059cbb11610083578063a9059cbb146102a7578063bcaede48146102d7578063dd62ed3e146102f5578063f2fde38b1461032557610112565b8063715018a6146102315780638da5cb5b1461023b57806395d89b4114610259578063a457c2d71461027757610112565b806323b872dd116100f057806323b872dd14610183578063313ce567146101b357806339509351146101d157806370a082311461020157610112565b806306fdde0314610117578063095ea7b31461013557806318160ddd14610165575b600080fd5b61011f610341565b60405161012c919061104d565b60405180910390f35b61014f600480360381019061014a9190611108565b6103d3565b60405161015c9190611163565b60405180910390f35b61016d6103f6565b60405161017a919061118d565b60405180910390f35b61019d600480360381019061019891906111a8565b610400565b6040516101aa9190611163565b60405180910390f35b6101bb61042f565b6040516101c89190611217565b60405180910390f35b6101eb60048036038101906101e69190611108565b610438565b6040516101f89190611163565b60405180910390f35b61021b60048036038101906102169190611232565b61046f565b604051610228919061118d565b60405180910390f35b6102396104b7565b005b61024361053f565b604051610250919061126e565b60405180910390f35b610261610569565b60405161026e919061104d565b60405180910390f35b610291600480360381019061028c9190611108565b6105fb565b60405161029e9190611163565b60405180910390f35b6102c160048036038101906102bc9190611108565b610672565b6040516102ce9190611163565b60405180910390f35b6102df610695565b6040516102ec919061118d565b60405180910390f35b61030f600480360381019061030a9190611289565b61072b565b60405161031c919061118d565b60405180910390f35b61033f600480360381019061033a9190611232565b6107b2565b005b606060038054610350906112f8565b80601f016020809104026020016040519081016040528092919081815260200182805461037c906112f8565b80156103c95780601f1061039e576101008083540402835291602001916103c9565b820191906000526020600020905b8154815290600101906020018083116103ac57829003601f168201915b5050505050905090565b6000806103de6108a9565b90506103eb8185856108b1565b600191505092915050565b6000600254905090565b60008061040b6108a9565b9050610418858285610a7a565b610423858585610b06565b60019150509392505050565b60006012905090565b6000806104436108a9565b9050610464818585610455858961072b565b61045f9190611358565b6108b1565b600191505092915050565b60008060008373ffffffffffffffffffffffffffffffffffffffff1673ffffffffffffffffffffffffffffffffffffffff168152602001908152602001600020549050919050565b6104bf6108a9565b73ffffffffffffffffffffffffffffffffffffffff166104dd61053f565b73ffffffffffffffffffffffffffffffffffffffff1614610533576040517f08c379a000000000000000000000000000000000000000000000000000000000815260040161052a906113fa565b60405180910390fd5b61053d6000610d85565b565b6000600560009054906101000a900473ffffffffffffffffffffffffffffffffffffffff16905090565b606060048054610578906112f8565b80601f01602080910402602001604051908101604052809291908181526020018280546105a4906112f8565b80156105f15780601f106105c6576101008083540402835291602001916105f1565b820191906000526020600020905b8154815290600101906020018083116105d457829003601f168201915b5050505050905090565b6000806106066108a9565b90506000610614828661072b565b905083811015610659576040517f08c379a00000000000000000000000000000000000000000000000000000000081526004016106509061148c565b60405180910390fd5b61066682868684036108b1565b60019250505092915050565b60008061067d6108a9565b905061068a818585610b06565b600191505092915050565b600061069f6108a9565b73ffffffffffffffffffffffffffffffffffffffff166106bd61053f565b73ffffffffffffffffffffffffffffffffffffffff1614610713576040517f08c379a000000000000000000000000000000000000000000000000000000000815260040161070a906113fa565b60405180910390fd5b600060065490506107243382610e4b565b8091505090565b6000600160008473ffffffffffffffffffffffffffffffffffffffff1673ffffffffffffffffffffffffffffffffffffffff16815260200190815260200160002060008373ffffffffffffffffffffffffffffffffffffffff1673ffffffffffffffffffffffffffffffffffffffff16815260200190815260200160002054905092915050565b6107ba6108a9565b73ffffffffffffffffffffffffffffffffffffffff166107d861053f565b73ffffffffffffffffffffffffffffffffffffffff161461082e576040517f08c379a0000000000000000000000000000000000000000000000000000000008152600401610825906113fa565b60405180910390fd5b600073ffffffffffffffffffffffffffffffffffffffff168173ffffffffffffffffffffffffffffffffffffffff160361089d576040517f08c379a00000000000000000000000000000000000000000000000000000000081526004016108949061151e565b60405180910390fd5b6108a681610d85565b50565b600033905090565b600073ffffffffffffffffffffffffffffffffffffffff168373ffffffffffffffffffffffffffffffffffffffff1603610920576040517f08c379a0000000000000000000000000000000000000000000000000000000008152600401610917906115b0565b60405180910390fd5b600073ffffffffffffffffffffffffffffffffffffffff168273ffffffffffffffffffffffffffffffffffffffff160361098f576040517f08c379a000000000000000000000000000000000000000000000000000000000815260040161098690611642565b60405180910390fd5b80600160008573ffffffffffffffffffffffffffffffffffffffff1673ffffffffffffffffffffffffffffffffffffffff16815260200190815260200160002060008473ffffffffffffffffffffffffffffffffffffffff1673ffffffffffffffffffffffffffffffffffffffff168152602001908152602001600020819055508173ffffffffffffffffffffffffffffffffffffffff168373ffffffffffffffffffffffffffffffffffffffff167f8c5be1e5ebec7d5bd14f71427d1e84f3dd0314c0f7b2291e5b200ac8c7c3b92583604051610a6d919061118d565b60405180910390a3505050565b6000610a86848461072b565b90507fffffffffffffffffffffffffffffffffffffffffffffffffffffffffffffffff8114610b005781811015610af2576040517f08c379a0000000000000000000000000000000000000000000000000000000008152600401610ae9906116ae565b60405180910390fd5b610aff84848484036108b1565b5b50505050565b600073ffffffffffffffffffffffffffffffffffffffff168373ffffffffffffffffffffffffffffffffffffffff1603610b75576040517f08c379a0000000000000000000000000000000000000000000000000000000008152600401610b6c90611740565b60405180910390fd5b600073ffffffffffffffffffffffffffffffffffffffff168273ffffffffffffffffffffffffffffffffffffffff1603610be4576040517f08c379a0000000000000000000000000000000000000000000000000000000008152600401610bdb906117d2565b60405180910390fd5b610bef838383610faa565b60008060008573ffffffffffffffffffffffffffffffffffffffff1673ffffffffffffffffffffffffffffffffffffffff16815260200190815260200160002054905081811015610c75576040517f08c379a0000000000000000000000000000000000000000000000000000000008152600401610c6c90611864565b60405180910390fd5b8181036000808673ffffffffffffffffffffffffffffffffffffffff1673ffffffffffffffffffffffffffffffffffffffff16815260200190815260200160002081905550816000808573ffffffffffffffffffffffffffffffffffffffff1673ffffffffffffffffffffffffffffffffffffffff1681526020019081526020016000206000828254610d089190611358565b925050819055508273ffffffffffffffffffffffffffffffffffffffff168473ffffffffffffffffffffffffffffffffffffffff167fddf252ad1be2c89b69c2b068fc378daa952ba7f163c4a11628f55a4df523b3ef84604051610d6c919061118d565b60405180910390a3610d7f848484610faf565b50505050565b6000600560009054906101000a900473ffffffffffffffffffffffffffffffffffffffff16905081600560006101000a81548173ffffffffffffffffffffffffffffffffffffffff021916908373ffffffffffffffffffffffffffffffffffffffff1602179055508173ffffffffffffffffffffffffffffffffffffffff168173ffffffffffffffffffffffffffffffffffffffff167f8be0079c531659141344cd1fd0a4f28419497f9722a3daafe3b4186f6b6457e060405160405180910390a35050565b600073ffffffffffffffffffffffffffffffffffffffff168273ffffffffffffffffffffffffffffffffffffffff1603610eba576040517f08c379a0000000000000000000000000000000000000000000000000000000008152600401610eb1906118d0565b60405180910390fd5b610ec660008383610faa565b8060026000828254610ed89190611358565b92505081905550806000808473ffffffffffffffffffffffffffffffffffffffff1673ffffffffffffffffffffffffffffffffffffffff1681526020019081526020016000206000828254610f2d9190611358565b925050819055508173ffffffffffffffffffffffffffffffffffffffff16600073ffffffffffffffffffffffffffffffffffffffff167fddf252ad1be2c89b69c2b068fc378daa952ba7f163c4a11628f55a4df523b3ef83604051610f92919061118d565b60405180910390a3610fa660008383610faf565b5050565b505050565b505050565b600081519050919050565b600082825260208201905092915050565b60005b83811015610fee578082015181840152602081019050610fd3565b83811115610ffd576000848401525b50505050565b6000601f19601f8301169050919050565b600061101f82610fb4565b6110298185610fbf565b9350611039818560208601610fd0565b61104281611003565b840191505092915050565b600060208201905081810360008301526110678184611014565b905092915050565b600080fd5b600073ffffffffffffffffffffffffffffffffffffffff82169050919050565b600061109f82611074565b9050919050565b6110af81611094565b81146110ba57600080fd5b50565b6000813590506110cc816110a6565b92915050565b6000819050919050565b6110e5816110d2565b81146110f057600080fd5b50565b600081359050611102816110dc565b92915050565b6000806040838503121561111f5761111e61106f565b5b600061112d858286016110bd565b925050602061113e858286016110f3565b9150509250929050565b60008115159050919050565b61115d81611148565b82525050565b60006020820190506111786000830184611154565b92915050565b611187816110d2565b82525050565b60006020820190506111a2600083018461117e565b92915050565b6000806000606084860312156111c1576111c061106f565b5b60006111cf868287016110bd565b93505060206111e0868287016110bd565b92505060406111f1868287016110f3565b9150509250925092565b600060ff82169050919050565b611211816111fb565b82525050565b600060208201905061122c6000830184611208565b92915050565b6000602082840312156112485761124761106f565b5b6000611256848285016110bd565b91505092915050565b61126881611094565b82525050565b6000602082019050611283600083018461125f565b92915050565b600080604083850312156112a05761129f61106f565b5b60006112ae858286016110bd565b92505060206112bf858286016110bd565b9150509250929050565b7f4e487b7100000000000000000000000000000000000000000000000000000000600052602260045260246000fd5b6000600282049050600182168061131057607f821691505b602082108103611323576113226112c9565b5b50919050565b7f4e487b7100000000000000000000000000000000000000000000000000000000600052601160045260246000fd5b6000611363826110d2565b915061136e836110d2565b9250827fffffffffffffffffffffffffffffffffffffffffffffffffffffffffffffffff038211156113a3576113a2611329565b5b828201905092915050565b7f4f776e61626c653a2063616c6c6572206973206e6f7420746865206f776e6572600082015250565b60006113e4602083610fbf565b91506113ef826113ae565b602082019050919050565b60006020820190508181036000830152611413816113d7565b9050919050565b7f45524332303a2064656372656173656420616c6c6f77616e63652062656c6f7760008201527f207a65726f000000000000000000000000000000000000000000000000000000602082015250565b6000611476602583610fbf565b91506114818261141a565b604082019050919050565b600060208201905081810360008301526114a581611469565b9050919050565b7f4f776e61626c653a206e6577206f776e657220697320746865207a65726f206160008201527f6464726573730000000000000000000000000000000000000000000000000000602082015250565b6000611508602683610fbf565b9150611513826114ac565b604082019050919050565b60006020820190508181036000830152611537816114fb565b9050919050565b7f45524332303a20617070726f76652066726f6d20746865207a65726f2061646460008201527f7265737300000000000000000000000000000000000000000000000000000000602082015250565b600061159a602483610fbf565b91506115a58261153e565b604082019050919050565b600060208201905081810360008301526115c98161158d565b9050919050565b7f45524332303a20617070726f766520746f20746865207a65726f20616464726560008201527f7373000000000000000000000000000000000000000000000000000000000000602082015250565b600061162c602283610fbf565b9150611637826115d0565b604082019050919050565b6000602082019050818103600083015261165b8161161f565b9050919050565b7f45524332303a20696e73756666696369656e7420616c6c6f77616e6365000000600082015250565b6000611698601d83610fbf565b91506116a382611662565b602082019050919050565b600060208201905081810360008301526116c78161168b565b9050919050565b7f45524332303a207472616e736665722066726f6d20746865207a65726f20616460008201527f6472657373000000000000000000000000000000000000000000000000000000602082015250565b600061172a602583610fbf565b9150611735826116ce565b604082019050919050565b600060208201905081810360008301526117598161171d565b9050919050565b7f45524332303a207472616e7366657220746f20746865207a65726f206164647260008201527f6573730000000000000000000000000000000000000000000000000000000000602082015250565b60006117bc602383610fbf565b91506117c782611760565b604082019050919050565b600060208201905081810360008301526117eb816117af565b9050919050565b7f45524332303a207472616e7366657220616d6f756e742065786365656473206260008201527f616c616e63650000000000000000000000000000000000000000000000000000602082015250565b600061184e602683610fbf565b9150611859826117f2565b604082019050919050565b6000602082019050818103600083015261187d81611841565b9050919050565b7f45524332303a206d696e7420746f20746865207a65726f206164647265737300600082015250565b60006118ba601f83610fbf565b91506118c582611884565b602082019050919050565b600060208201905081810360008301526118e9816118ad565b905091905056fea2646970667358221220f2c8088f3722d950e990a90c913f82134d61f6c8a2b02b85b78820d3201c0ed064736f6c634300080e0033",
  "immutableReferences": {},
  "source": " // SPDX-License-Identifier: MIT\n\npragma solidity ^0.8.14;\nimport \"./MyToken.sol\";\ncontract Distribut {\n      uint256 public total;\n      uint256 public tokenSalePercentage;\n      uint256 public tokenFoundersPercentage;\n      uint256 public tokenTeammemberPercentage;\n\n     mapping(uint256 => Saler) private _salers;\n     mapping(uint256 => Founder) private _founders;\n     mapping(uint256 => Teammember) private _teammember;\n\n // Token Distribution\n     \n\n //ids\n     uint256 private _tokenSalerId=0;\n     uint256 private _tokenFounderId=0;\n     uint256 private _tokenTeammemberId=0;\n    constructor(){\n        total = new MyToken().TokenMint();\n        tokenSalePercentage =total/2;\n        tokenFoundersPercentage = total/5;\n        tokenTeammemberPercentage=total/4;\n    }\n\n     enum Status {\n          Active,\n          Sold,\n          Cancelled\n   }\n    \nstruct Saler {\n\n        address saler;\n        address token;\n        uint256 tokenId;\n        uint256 price;\n\n}\n\nstruct Founder {\n\n        Status  tokenstatus;\n        address founder;\n        address token;\n        uint256 tokenId;\n        uint256 price;\n        uint256 UseTime;\n\n}\n\nstruct Teammember {\n        Status  tokenstatus;\n        address teamlead;\n        address token;\n        uint256 tokenId;\n        uint256 price;\n        uint256 UseTime;\n\n}\n\n    function getFoundersTotalSupply() public view returns(uint256) {\n        return tokenFoundersPercentage;\n    }\n    //  function to add new Seller\n    function addSeller(address token, uint256 tokenId, uint256 price) external {\n        Saler memory salers = Saler(\n            msg.sender,\n            token,\n            tokenId,\n            price\n        );\n\n        ++_tokenSalerId;\n        _salers[_tokenSalerId] = salers;\n    }\n\n\n    // function to add new Founder\n    function addFounder(address founder, address token, uint256 tokenId,uint256 price) external {\n        Founder memory founders = Founder(\n            Status.Active,\n            founder,\n            token,\n            tokenId,\n            price,\n            (block.timestamp + 300 days)\n        );\n\n        ++_tokenFounderId;\n        _founders[_tokenFounderId] = founders;\n    }\n   \n   \n    // function to add teammember\n    function addTeamlead(address teamlead, address token, uint256 tokenId,uint256 price) external {\n        Teammember memory teammember = Teammember(\n            Status.Active,\n            teamlead,\n            token,\n            tokenId,\n            price,\n            (block.timestamp + 200 days)\n        );\n\n        ++_tokenTeammemberId;\n        _teammember[_tokenTeammemberId] = teammember;\n    }\n\n    function buyToken(uint256 sellerId) external payable {\n        Saler storage salers = _salers[sellerId];\n\n        require(msg.sender != salers.saler, \"Buyer can not be a seller\");\n        require(msg.value >= salers.price, \"Insufficient Balance\");\n        require(salers.tokenId < tokenSalePercentage, \"There is no tokens\");\n        IERC20(salers.token).transferFrom(salers.saler, msg.sender, salers.tokenId);\n        payable(salers.saler).transfer(salers.price);\n        payable(msg.sender).transfer(msg.value - salers.price);\n        tokenSalePercentage -= salers.tokenId;\n    }\n    //buying from founder\n     function buyTokenFounder(uint256 founderId) external payable {\n        Founder storage founders = _founders[founderId];\n        require(tokenFoundersPercentage > 2 ,\"founder  cant sale last token\");\n        founders.tokenstatus = Status.Cancelled;\n        require(msg.sender != founders.founder, \"Buyer can not be a seller\");\n         require(msg.value >= founders.price, \"Insufficient Balance\");\n        require(founders.UseTime-block.timestamp >= 200,\"founder can`t sale tokens \");\n        IERC20(founders.token).transferFrom(address(this), msg.sender, founders.tokenId);\n\t\tpayable(founders.founder).transfer(founders.price);\n        tokenFoundersPercentage -= founders.tokenId;\n\n    }\n        \n     //buying from  teamlead\n     \n}\n\n   \n",
  "sourcePath": "/home/hripsime/Desktop/distibution contruct/contracts/Distribut.sol",
  "compiler": {
    "name": "solc",
    "version": "0.8.14+commit.80d49f37.Emscripten.clang"
  },
  "schemaVersion": "3.4.7",
  "updatedAt": "2022-05-25T14:09:33.902Z",
  "devdoc": {
    "kind": "dev",
    "methods": {},
    "version": 1
  },
  "userdoc": {
    "kind": "user",
    "methods": {},
    "version": 1
  }
}